{
  "_format": "hh-sol-artifact-1",
  "contractName": "Escrow",
  "sourceName": "contracts/Escrow.sol",
  "abi": [
    {
      "inputs": [],
      "stateMutability": "nonpayable",
      "type": "constructor"
    },
    {
      "anonymous": false,
      "inputs": [
        {
          "indexed": true,
          "internalType": "address",
          "name": "arb",
          "type": "address"
        },
        {
          "indexed": true,
          "internalType": "address",
          "name": "ben",
          "type": "address"
        },
        {
          "indexed": true,
          "internalType": "address",
          "name": "dep",
          "type": "address"
        },
        {
          "indexed": false,
          "internalType": "uint256",
          "name": "timestamp",
          "type": "uint256"
        },
        {
          "indexed": false,
          "internalType": "uint256",
          "name": "amount",
          "type": "uint256"
        },
        {
          "indexed": false,
          "internalType": "bool",
          "name": "arbApprove",
          "type": "bool"
        },
        {
          "indexed": false,
          "internalType": "bool",
          "name": "isApprove",
          "type": "bool"
        },
        {
          "indexed": false,
          "internalType": "bool",
          "name": "dismiss",
          "type": "bool"
        }
      ],
      "name": "NewContract",
      "type": "event"
    },
    {
      "inputs": [
        {
          "internalType": "uint256",
          "name": "i",
          "type": "uint256"
        }
      ],
      "name": "approve",
      "outputs": [],
      "stateMutability": "nonpayable",
      "type": "function"
    },
    {
      "inputs": [
        {
          "internalType": "uint256",
          "name": "i",
          "type": "uint256"
        }
      ],
      "name": "approveArbiter",
      "outputs": [],
      "stateMutability": "nonpayable",
      "type": "function"
    },
    {
      "inputs": [],
      "name": "arbiter",
      "outputs": [
        {
          "internalType": "address",
          "name": "",
          "type": "address"
        }
      ],
      "stateMutability": "view",
      "type": "function"
    },
    {
      "inputs": [],
      "name": "beneficiary",
      "outputs": [
        {
          "internalType": "address payable",
          "name": "",
          "type": "address"
        }
      ],
      "stateMutability": "view",
      "type": "function"
    },
    {
      "inputs": [
        {
          "internalType": "uint256",
          "name": "i",
          "type": "uint256"
        }
      ],
      "name": "deleteContract",
      "outputs": [],
      "stateMutability": "nonpayable",
      "type": "function"
    },
    {
      "inputs": [],
      "name": "depositor",
      "outputs": [
        {
          "internalType": "address payable",
          "name": "",
          "type": "address"
        }
      ],
      "stateMutability": "view",
      "type": "function"
    },
    {
      "inputs": [
        {
          "internalType": "uint256",
          "name": "i",
          "type": "uint256"
        }
      ],
      "name": "dismissEscrow",
      "outputs": [],
      "stateMutability": "nonpayable",
      "type": "function"
    },
    {
      "inputs": [],
      "name": "getAllContracts",
      "outputs": [
        {
          "components": [
            {
              "internalType": "address",
              "name": "Arbiter",
              "type": "address"
            },
            {
              "internalType": "address payable",
              "name": "Beneficiary",
              "type": "address"
            },
            {
              "internalType": "address payable",
              "name": "Depositor",
              "type": "address"
            },
            {
              "internalType": "uint256",
              "name": "timestamp",
              "type": "uint256"
            },
            {
              "internalType": "uint256",
              "name": "Amount",
              "type": "uint256"
            },
            {
              "internalType": "bool",
              "name": "ArbiterApproved",
              "type": "bool"
            },
            {
              "internalType": "bool",
              "name": "IsApproved",
              "type": "bool"
            },
            {
              "internalType": "bool",
              "name": "Dismissed",
              "type": "bool"
            }
          ],
          "internalType": "struct Escrow.Contract[]",
          "name": "",
          "type": "tuple[]"
        }
      ],
      "stateMutability": "view",
      "type": "function"
    },
    {
      "inputs": [],
      "name": "owner",
      "outputs": [
        {
          "internalType": "address payable",
          "name": "",
          "type": "address"
        }
      ],
      "stateMutability": "view",
      "type": "function"
    },
    {
      "inputs": [
        {
          "internalType": "address",
          "name": "_arbiter",
          "type": "address"
        },
        {
          "internalType": "address payable",
          "name": "_beneficiary",
          "type": "address"
        }
      ],
      "name": "writeNewContract",
      "outputs": [],
      "stateMutability": "payable",
      "type": "function"
    }
  ],
  "bytecode": "0x608060405234801561001057600080fd5b5033600360006101000a81548173ffffffffffffffffffffffffffffffffffffffff021916908373ffffffffffffffffffffffffffffffffffffffff160217905550612028806100616000396000f3fe6080604052600436106100915760003560e01c80639b985e44116100595780639b985e4414610169578063b759f95414610185578063c7c4ff46146101ae578063efd37e5b146101d9578063fe25e00a1461020257610091565b806318d3ce961461009657806338af3eed146100c157806358d74620146100ec5780636893d336146101155780638da5cb5b1461013e575b600080fd5b3480156100a257600080fd5b506100ab61022d565b6040516100b89190611a86565b60405180910390f35b3480156100cd57600080fd5b506100d66103f4565b6040516100e39190611a6b565b60405180910390f35b3480156100f857600080fd5b50610113600480360381019061010e919061170d565b61041a565b005b34801561012157600080fd5b5061013c6004803603810190610137919061170d565b61057b565b005b34801561014a57600080fd5b50610153610830565b6040516101609190611a6b565b60405180910390f35b610183600480360381019061017e91906116d1565b610856565b005b34801561019157600080fd5b506101ac60048036038101906101a7919061170d565b610ce6565b005b3480156101ba57600080fd5b506101c36110a1565b6040516101d09190611a6b565b60405180910390f35b3480156101e557600080fd5b5061020060048036038101906101fb919061170d565b6110c7565b005b34801561020e57600080fd5b506102176115ac565b6040516102249190611a50565b60405180910390f35b60606004805480602002602001604051908101604052809291908181526020016000905b828210156103eb5783829060005260206000209060060201604051806101000160405290816000820160009054906101000a900473ffffffffffffffffffffffffffffffffffffffff1673ffffffffffffffffffffffffffffffffffffffff1673ffffffffffffffffffffffffffffffffffffffff1681526020016001820160009054906101000a900473ffffffffffffffffffffffffffffffffffffffff1673ffffffffffffffffffffffffffffffffffffffff1673ffffffffffffffffffffffffffffffffffffffff1681526020016002820160009054906101000a900473ffffffffffffffffffffffffffffffffffffffff1673ffffffffffffffffffffffffffffffffffffffff1673ffffffffffffffffffffffffffffffffffffffff16815260200160038201548152602001600482015481526020016005820160009054906101000a900460ff161515151581526020016005820160019054906101000a900460ff161515151581526020016005820160029054906101000a900460ff16151515158152505081526020019060010190610251565b50505050905090565b600160009054906101000a900473ffffffffffffffffffffffffffffffffffffffff1681565b60048181548110610454577f4e487b7100000000000000000000000000000000000000000000000000000000600052603260045260246000fd5b906000526020600020906006020160010160009054906101000a900473ffffffffffffffffffffffffffffffffffffffff1673ffffffffffffffffffffffffffffffffffffffff163373ffffffffffffffffffffffffffffffffffffffff16146104f3576040517f08c379a00000000000000000000000000000000000000000000000000000000081526004016104ea90611aea565b60405180910390fd5b60016004828154811061052f577f4e487b7100000000000000000000000000000000000000000000000000000000600052603260045260246000fd5b906000526020600020906006020160050160006101000a81548160ff0219169083151502179055506105786040518060600160405280602e8152602001611fc5602e91396115d0565b50565b600481815481106105b5577f4e487b7100000000000000000000000000000000000000000000000000000000600052603260045260246000fd5b906000526020600020906006020160050160019054906101000a900460ff166105dd57600080fd5b60048181548110610617577f4e487b7100000000000000000000000000000000000000000000000000000000600052603260045260246000fd5b906000526020600020906006020160020160009054906101000a900473ffffffffffffffffffffffffffffffffffffffff1673ffffffffffffffffffffffffffffffffffffffff163373ffffffffffffffffffffffffffffffffffffffff1614806107185750600481815481106106b7577f4e487b7100000000000000000000000000000000000000000000000000000000600052603260045260246000fd5b906000526020600020906006020160010160009054906101000a900473ffffffffffffffffffffffffffffffffffffffff1673ffffffffffffffffffffffffffffffffffffffff163373ffffffffffffffffffffffffffffffffffffffff16145b61072157600080fd5b6004818154811061075b577f4e487b7100000000000000000000000000000000000000000000000000000000600052603260045260246000fd5b9060005260206000209060060201600080820160006101000a81549073ffffffffffffffffffffffffffffffffffffffff02191690556001820160006101000a81549073ffffffffffffffffffffffffffffffffffffffff02191690556002820160006101000a81549073ffffffffffffffffffffffffffffffffffffffff0219169055600382016000905560048201600090556005820160006101000a81549060ff02191690556005820160016101000a81549060ff02191690556005820160026101000a81549060ff0219169055505050565b600360009054906101000a900473ffffffffffffffffffffffffffffffffffffffff1681565b60003411610899576040517f08c379a000000000000000000000000000000000000000000000000000000000815260040161089090611b0a565b60405180910390fd5b816000806101000a81548173ffffffffffffffffffffffffffffffffffffffff021916908373ffffffffffffffffffffffffffffffffffffffff16021790555080600160006101000a81548173ffffffffffffffffffffffffffffffffffffffff021916908373ffffffffffffffffffffffffffffffffffffffff16021790555033600260006101000a81548173ffffffffffffffffffffffffffffffffffffffff021916908373ffffffffffffffffffffffffffffffffffffffff160217905550600460405180610100016040528060008054906101000a900473ffffffffffffffffffffffffffffffffffffffff1673ffffffffffffffffffffffffffffffffffffffff168152602001600160009054906101000a900473ffffffffffffffffffffffffffffffffffffffff1673ffffffffffffffffffffffffffffffffffffffff168152602001600260009054906101000a900473ffffffffffffffffffffffffffffffffffffffff1673ffffffffffffffffffffffffffffffffffffffff16815260200142815260200134815260200160001515815260200160001515815260200160001515815250908060018154018082558091505060019003906000526020600020906006020160009091909190915060008201518160000160006101000a81548173ffffffffffffffffffffffffffffffffffffffff021916908373ffffffffffffffffffffffffffffffffffffffff16021790555060208201518160010160006101000a81548173ffffffffffffffffffffffffffffffffffffffff021916908373ffffffffffffffffffffffffffffffffffffffff16021790555060408201518160020160006101000a81548173ffffffffffffffffffffffffffffffffffffffff021916908373ffffffffffffffffffffffffffffffffffffffff160217905550606082015181600301556080820151816004015560a08201518160050160006101000a81548160ff02191690831515021790555060c08201518160050160016101000a81548160ff02191690831515021790555060e08201518160050160026101000a81548160ff0219169083151502179055505050600260009054906101000a900473ffffffffffffffffffffffffffffffffffffffff1673ffffffffffffffffffffffffffffffffffffffff16600160009054906101000a900473ffffffffffffffffffffffffffffffffffffffff1673ffffffffffffffffffffffffffffffffffffffff1660008054906101000a900473ffffffffffffffffffffffffffffffffffffffff1673ffffffffffffffffffffffffffffffffffffffff167f13b658e046ef98e7bfa4a8c71f344da1f8f1ebd2b60e70db013ccb875c1ce3a042346000806000604051610c9c959493929190611bca565b60405180910390a4610ce26040518060400160405280601f81526020017f61206e657720636f6e747261637420686173206265656e207772697474656e008152506115d0565b5050565b60048181548110610d20577f4e487b7100000000000000000000000000000000000000000000000000000000600052603260045260246000fd5b906000526020600020906006020160050160019054906101000a900460ff1615610d7f576040517f08c379a0000000000000000000000000000000000000000000000000000000008152600401610d7690611b4a565b60405180910390fd5b60048181548110610db9577f4e487b7100000000000000000000000000000000000000000000000000000000600052603260045260246000fd5b906000526020600020906006020160050160009054906101000a900460ff16610e17576040517f08c379a0000000000000000000000000000000000000000000000000000000008152600401610e0e90611b6a565b60405180910390fd5b60048181548110610e51577f4e487b7100000000000000000000000000000000000000000000000000000000600052603260045260246000fd5b906000526020600020906006020160000160009054906101000a900473ffffffffffffffffffffffffffffffffffffffff1673ffffffffffffffffffffffffffffffffffffffff163373ffffffffffffffffffffffffffffffffffffffff1614610ef0576040517f08c379a0000000000000000000000000000000000000000000000000000000008152600401610ee790611aca565b60405180910390fd5b600060048281548110610f2c577f4e487b7100000000000000000000000000000000000000000000000000000000600052603260045260246000fd5b9060005260206000209060060201600401549050600060048381548110610f7c577f4e487b7100000000000000000000000000000000000000000000000000000000600052603260045260246000fd5b906000526020600020906006020160010160009054906101000a900473ffffffffffffffffffffffffffffffffffffffff1673ffffffffffffffffffffffffffffffffffffffff1682604051610fd190611a3b565b60006040518083038185875af1925050503d806000811461100e576040519150601f19603f3d011682016040523d82523d6000602084013e611013565b606091505b50509050600160048481548110611053577f4e487b7100000000000000000000000000000000000000000000000000000000600052603260045260246000fd5b906000526020600020906006020160050160016101000a81548160ff02191690831515021790555061109c604051806060016040528060358152602001611f90603591396115d0565b505050565b600260009054906101000a900473ffffffffffffffffffffffffffffffffffffffff1681565b60048181548110611101577f4e487b7100000000000000000000000000000000000000000000000000000000600052603260045260246000fd5b906000526020600020906006020160050160029054906101000a900460ff1615611160576040517f08c379a000000000000000000000000000000000000000000000000000000000815260040161115790611baa565b60405180910390fd5b6004818154811061119a577f4e487b7100000000000000000000000000000000000000000000000000000000600052603260045260246000fd5b906000526020600020906006020160050160019054906101000a900460ff16156111f9576040517f08c379a00000000000000000000000000000000000000000000000000000000081526004016111f090611b2a565b60405180910390fd5b60048181548110611233577f4e487b7100000000000000000000000000000000000000000000000000000000600052603260045260246000fd5b906000526020600020906006020160000160009054906101000a900473ffffffffffffffffffffffffffffffffffffffff1673ffffffffffffffffffffffffffffffffffffffff163373ffffffffffffffffffffffffffffffffffffffff16146112d2576040517f08c379a00000000000000000000000000000000000000000000000000000000081526004016112c990611b8a565b60405180910390fd5b60006004828154811061130e577f4e487b7100000000000000000000000000000000000000000000000000000000600052603260045260246000fd5b906000526020600020906006020160040154905060006004838154811061135e577f4e487b7100000000000000000000000000000000000000000000000000000000600052603260045260246000fd5b906000526020600020906006020160020160009054906101000a900473ffffffffffffffffffffffffffffffffffffffff1673ffffffffffffffffffffffffffffffffffffffff16826040516113b390611a3b565b60006040518083038185875af1925050503d80600081146113f0576040519150601f19603f3d011682016040523d82523d6000602084013e6113f5565b606091505b50509050600160048481548110611435577f4e487b7100000000000000000000000000000000000000000000000000000000600052603260045260246000fd5b906000526020600020906006020160050160026101000a81548160ff02191690831515021790555060048381548110611497577f4e487b7100000000000000000000000000000000000000000000000000000000600052603260045260246000fd5b9060005260206000209060060201600080820160006101000a81549073ffffffffffffffffffffffffffffffffffffffff02191690556001820160006101000a81549073ffffffffffffffffffffffffffffffffffffffff02191690556002820160006101000a81549073ffffffffffffffffffffffffffffffffffffffff0219169055600382016000905560048201600090556005820160006101000a81549060ff02191690556005820160016101000a81549060ff02191690556005820160026101000a81549060ff021916905550506115a76040518060400160405280601081526020017f657363726f77206469736d6973736564000000000000000000000000000000008152506115d0565b505050565b60008054906101000a900473ffffffffffffffffffffffffffffffffffffffff1681565b611666816040516024016115e49190611aa8565b6040516020818303038152906040527f41304fac000000000000000000000000000000000000000000000000000000007bffffffffffffffffffffffffffffffffffffffffffffffffffffffff19166020820180517bffffffffffffffffffffffffffffffffffffffffffffffffffffffff8381831617835250505050611669565b50565b60008151905060006a636f6e736f6c652e6c6f679050602083016000808483855afa5050505050565b6000813590506116a181611f4a565b92915050565b6000813590506116b681611f61565b92915050565b6000813590506116cb81611f78565b92915050565b600080604083850312156116e457600080fd5b60006116f285828601611692565b9250506020611703858286016116a7565b9150509250929050565b60006020828403121561171f57600080fd5b600061172d848285016116bc565b91505092915050565b6000611742838361197b565b6101008301905092915050565b61175881611c8f565b82525050565b61176781611c8f565b82525050565b61177681611c7d565b82525050565b61178581611c7d565b82525050565b600061179682611c2d565b6117a08185611c50565b93506117ab83611c1d565b8060005b838110156117dc5781516117c38882611736565b97506117ce83611c43565b9250506001810190506117af565b5085935050505092915050565b6117f281611ca1565b82525050565b61180181611ca1565b82525050565b600061181282611c38565b61181c8185611c6c565b935061182c818560208601611cd7565b61183581611d0a565b840191505092915050565b600061184d602383611c6c565b915061185882611d1b565b604082019050919050565b6000611870602483611c6c565b915061187b82611d6a565b604082019050919050565b6000611893601f83611c6c565b915061189e82611db9565b602082019050919050565b60006118b6603283611c6c565b91506118c182611de2565b604082019050919050565b60006118d9602283611c6c565b91506118e482611e31565b604082019050919050565b60006118fc603083611c6c565b915061190782611e80565b604082019050919050565b600061191f600083611c61565b915061192a82611ecf565b600082019050919050565b6000611942602083611c6c565b915061194d82611ed2565b602082019050919050565b6000611965602683611c6c565b915061197082611efb565b604082019050919050565b61010082016000820151611992600085018261176d565b5060208201516119a5602085018261174f565b5060408201516119b8604085018261174f565b5060608201516119cb6060850182611a1d565b5060808201516119de6080850182611a1d565b5060a08201516119f160a08501826117e9565b5060c0820151611a0460c08501826117e9565b5060e0820151611a1760e08501826117e9565b50505050565b611a2681611ccd565b82525050565b611a3581611ccd565b82525050565b6000611a4682611912565b9150819050919050565b6000602082019050611a65600083018461177c565b92915050565b6000602082019050611a80600083018461175e565b92915050565b60006020820190508181036000830152611aa0818461178b565b905092915050565b60006020820190508181036000830152611ac28184611807565b905092915050565b60006020820190508181036000830152611ae381611840565b9050919050565b60006020820190508181036000830152611b0381611863565b9050919050565b60006020820190508181036000830152611b2381611886565b9050919050565b60006020820190508181036000830152611b43816118a9565b9050919050565b60006020820190508181036000830152611b63816118cc565b9050919050565b60006020820190508181036000830152611b83816118ef565b9050919050565b60006020820190508181036000830152611ba381611935565b9050919050565b60006020820190508181036000830152611bc381611958565b9050919050565b600060a082019050611bdf6000830188611a2c565b611bec6020830187611a2c565b611bf960408301866117f8565b611c0660608301856117f8565b611c1360808301846117f8565b9695505050505050565b6000819050602082019050919050565b600081519050919050565b600081519050919050565b6000602082019050919050565b600082825260208201905092915050565b600081905092915050565b600082825260208201905092915050565b6000611c8882611cad565b9050919050565b6000611c9a82611cad565b9050919050565b60008115159050919050565b600073ffffffffffffffffffffffffffffffffffffffff82169050919050565b6000819050919050565b60005b83811015611cf5578082015181840152602081019050611cda565b83811115611d04576000848401525b50505050565b6000601f19601f8301169050919050565b7f796f7520617265206e6f742074686520636f6e7472616374732773206172626960008201527f7465720000000000000000000000000000000000000000000000000000000000602082015250565b7f796f7520617265206e6f742074686520657363726f7727732062656e6566696360008201527f6961727900000000000000000000000000000000000000000000000000000000602082015250565b7f696e73657274207468652076616c7565206f6620796f757220657363726f7700600082015250565b7f7468697320657363726f7720686173206265656e20617070726f76656420796f60008201527f752063616e2774206469736d6973732069740000000000000000000000000000602082015250565b7f636f6e747261637420686173206265656e20616c726561647920617070726f7660008201527f6564000000000000000000000000000000000000000000000000000000000000602082015250565b7f7468652061726269746572206973206e6f7420617070726f7665642066726f6d60008201527f2062656e65666963696172792079657400000000000000000000000000000000602082015250565b50565b7f796f7520617265206e6f742074686520657363726f7727732061726269746572600082015250565b7f7468697320657363726f7720686173206265656e20616c72656164792064697360008201527f6d69737365640000000000000000000000000000000000000000000000000000602082015250565b611f5381611c7d565b8114611f5e57600080fd5b50565b611f6a81611c8f565b8114611f7557600080fd5b50565b611f8181611ccd565b8114611f8c57600080fd5b5056fe657363726f77206265747765656e207061727469657320686173206265656e20617070726f7665642066726f6d20617262697465726172626974657220686173206265656e20617070726f7665642066726f6d2062656e656669636961727920746f6fa264697066735822122020966527c5c76b76d65211f8909e65182fd1d5743b290d0ad50d7b5f82a6ef6564736f6c63430008040033",
  "linkReferences": {},
  "deployedLinkReferences": {}
}