{
    "_format": "hh-sol-artifact-1",
    "contractName": "Escrow",
    "sourceName": "contracts/Escrow2.sol",
    "abi": [
        {
            "anonymous": false,
            "inputs": [
                {
                    "indexed": true,
                    "internalType": "address",
                    "name": "arb",
                    "type": "address"
                },
                {
                    "indexed": true,
                    "internalType": "address",
                    "name": "ben",
                    "type": "address"
                },
                {
                    "indexed": true,
                    "internalType": "address",
                    "name": "dep",
                    "type": "address"
                },
                {
                    "indexed": false,
                    "internalType": "uint256",
                    "name": "timestamp",
                    "type": "uint256"
                },
                {
                    "indexed": false,
                    "internalType": "uint256",
                    "name": "amount",
                    "type": "uint256"
                },
                {
                    "indexed": false,
                    "internalType": "bool",
                    "name": "arbApprove",
                    "type": "bool"
                },
                {
                    "indexed": false,
                    "internalType": "bool",
                    "name": "isApprove",
                    "type": "bool"
                },
                {
                    "indexed": false,
                    "internalType": "bool",
                    "name": "dismiss",
                    "type": "bool"
                }
            ],
            "name": "NewContract",
            "type": "event"
        },
        {
            "inputs": [
                {
                    "internalType": "uint256",
                    "name": "i",
                    "type": "uint256"
                }
            ],
            "name": "approve",
            "outputs": [],
            "stateMutability": "nonpayable",
            "type": "function"
        },
        {
            "inputs": [
                {
                    "internalType": "uint256",
                    "name": "i",
                    "type": "uint256"
                }
            ],
            "name": "approveArbiter",
            "outputs": [],
            "stateMutability": "nonpayable",
            "type": "function"
        },
        {
            "inputs": [
                {
                    "internalType": "uint256",
                    "name": "i",
                    "type": "uint256"
                }
            ],
            "name": "deleteContract",
            "outputs": [],
            "stateMutability": "nonpayable",
            "type": "function"
        },
        {
            "inputs": [
                {
                    "internalType": "uint256",
                    "name": "i",
                    "type": "uint256"
                }
            ],
            "name": "dismissEscrow",
            "outputs": [],
            "stateMutability": "nonpayable",
            "type": "function"
        },
        {
            "inputs": [],
            "name": "getAllContracts",
            "outputs": [
                {
                    "components": [
                        {
                            "internalType": "address",
                            "name": "Arbiter",
                            "type": "address"
                        },
                        {
                            "internalType": "address payable",
                            "name": "Beneficiary",
                            "type": "address"
                        },
                        {
                            "internalType": "address payable",
                            "name": "Depositor",
                            "type": "address"
                        },
                        {
                            "internalType": "uint256",
                            "name": "timestamp",
                            "type": "uint256"
                        },
                        {
                            "internalType": "uint256",
                            "name": "Amount",
                            "type": "uint256"
                        },
                        {
                            "internalType": "bool",
                            "name": "ArbiterApproved",
                            "type": "bool"
                        },
                        {
                            "internalType": "bool",
                            "name": "IsApproved",
                            "type": "bool"
                        },
                        {
                            "internalType": "bool",
                            "name": "Dismissed",
                            "type": "bool"
                        }
                    ],
                    "internalType": "struct Escrow.Contract[]",
                    "name": "",
                    "type": "tuple[]"
                }
            ],
            "stateMutability": "view",
            "type": "function"
        },
        {
            "inputs": [
                {
                    "internalType": "address",
                    "name": "_arbiter",
                    "type": "address"
                },
                {
                    "internalType": "address payable",
                    "name": "_beneficiary",
                    "type": "address"
                }
            ],
            "name": "writeNewContract",
            "outputs": [],
            "stateMutability": "payable",
            "type": "function"
        }
    ],
    "bytecode": "0x608060405234801561001057600080fd5b50611cc8806100206000396000f3fe6080604052600436106100555760003560e01c806318d3ce961461005a57806358d74620146100855780636893d336146100ae5780639b985e44146100d7578063b759f954146100f3578063efd37e5b1461011c575b600080fd5b34801561006657600080fd5b5061006f610145565b60405161007c9190611726565b60405180910390f35b34801561009157600080fd5b506100ac60048036038101906100a79190611401565b61030c565b005b3480156100ba57600080fd5b506100d560048036038101906100d09190611401565b61046d565b005b6100f160048036038101906100ec91906113c5565b610722565b005b3480156100ff57600080fd5b5061011a60048036038101906101159190611401565b610a28565b005b34801561012857600080fd5b50610143600480360381019061013e9190611401565b610de1565b005b60606000805480602002602001604051908101604052809291908181526020016000905b828210156103035783829060005260206000209060060201604051806101000160405290816000820160009054906101000a900473ffffffffffffffffffffffffffffffffffffffff1673ffffffffffffffffffffffffffffffffffffffff1673ffffffffffffffffffffffffffffffffffffffff1681526020016001820160009054906101000a900473ffffffffffffffffffffffffffffffffffffffff1673ffffffffffffffffffffffffffffffffffffffff1673ffffffffffffffffffffffffffffffffffffffff1681526020016002820160009054906101000a900473ffffffffffffffffffffffffffffffffffffffff1673ffffffffffffffffffffffffffffffffffffffff1673ffffffffffffffffffffffffffffffffffffffff16815260200160038201548152602001600482015481526020016005820160009054906101000a900460ff161515151581526020016005820160019054906101000a900460ff161515151581526020016005820160029054906101000a900460ff16151515158152505081526020019060010190610169565b50505050905090565b60008181548110610346577f4e487b7100000000000000000000000000000000000000000000000000000000600052603260045260246000fd5b906000526020600020906006020160010160009054906101000a900473ffffffffffffffffffffffffffffffffffffffff1673ffffffffffffffffffffffffffffffffffffffff163373ffffffffffffffffffffffffffffffffffffffff16146103e5576040517f08c379a00000000000000000000000000000000000000000000000000000000081526004016103dc9061178a565b60405180910390fd5b600160008281548110610421577f4e487b7100000000000000000000000000000000000000000000000000000000600052603260045260246000fd5b906000526020600020906006020160050160006101000a81548160ff02191690831515021790555061046a6040518060600160405280602e8152602001611c65602e91396112c4565b50565b600081815481106104a7577f4e487b7100000000000000000000000000000000000000000000000000000000600052603260045260246000fd5b906000526020600020906006020160050160019054906101000a900460ff166104cf57600080fd5b60008181548110610509577f4e487b7100000000000000000000000000000000000000000000000000000000600052603260045260246000fd5b906000526020600020906006020160020160009054906101000a900473ffffffffffffffffffffffffffffffffffffffff1673ffffffffffffffffffffffffffffffffffffffff163373ffffffffffffffffffffffffffffffffffffffff16148061060a5750600081815481106105a9577f4e487b7100000000000000000000000000000000000000000000000000000000600052603260045260246000fd5b906000526020600020906006020160010160009054906101000a900473ffffffffffffffffffffffffffffffffffffffff1673ffffffffffffffffffffffffffffffffffffffff163373ffffffffffffffffffffffffffffffffffffffff16145b61061357600080fd5b6000818154811061064d577f4e487b7100000000000000000000000000000000000000000000000000000000600052603260045260246000fd5b9060005260206000209060060201600080820160006101000a81549073ffffffffffffffffffffffffffffffffffffffff02191690556001820160006101000a81549073ffffffffffffffffffffffffffffffffffffffff02191690556002820160006101000a81549073ffffffffffffffffffffffffffffffffffffffff0219169055600382016000905560048201600090556005820160006101000a81549060ff02191690556005820160016101000a81549060ff02191690556005820160026101000a81549060ff0219169055505050565b60003411610765576040517f08c379a000000000000000000000000000000000000000000000000000000000815260040161075c906117aa565b60405180910390fd5b60006040518061010001604052808473ffffffffffffffffffffffffffffffffffffffff1681526020018373ffffffffffffffffffffffffffffffffffffffff1681526020013373ffffffffffffffffffffffffffffffffffffffff16815260200142815260200134815260200160001515815260200160001515815260200160001515815250908060018154018082558091505060019003906000526020600020906006020160009091909190915060008201518160000160006101000a81548173ffffffffffffffffffffffffffffffffffffffff021916908373ffffffffffffffffffffffffffffffffffffffff16021790555060208201518160010160006101000a81548173ffffffffffffffffffffffffffffffffffffffff021916908373ffffffffffffffffffffffffffffffffffffffff16021790555060408201518160020160006101000a81548173ffffffffffffffffffffffffffffffffffffffff021916908373ffffffffffffffffffffffffffffffffffffffff160217905550606082015181600301556080820151816004015560a08201518160050160006101000a81548160ff02191690831515021790555060c08201518160050160016101000a81548160ff02191690831515021790555060e08201518160050160026101000a81548160ff02191690831515021790555050503373ffffffffffffffffffffffffffffffffffffffff168173ffffffffffffffffffffffffffffffffffffffff168373ffffffffffffffffffffffffffffffffffffffff167f13b658e046ef98e7bfa4a8c71f344da1f8f1ebd2b60e70db013ccb875c1ce3a0423460008060006040516109de95949392919061186a565b60405180910390a4610a246040518060400160405280601f81526020017f61206e657720636f6e747261637420686173206265656e207772697474656e008152506112c4565b5050565b60008181548110610a62577f4e487b7100000000000000000000000000000000000000000000000000000000600052603260045260246000fd5b906000526020600020906006020160050160019054906101000a900460ff1615610ac1576040517f08c379a0000000000000000000000000000000000000000000000000000000008152600401610ab8906117ea565b60405180910390fd5b60008181548110610afb577f4e487b7100000000000000000000000000000000000000000000000000000000600052603260045260246000fd5b906000526020600020906006020160050160009054906101000a900460ff16610b59576040517f08c379a0000000000000000000000000000000000000000000000000000000008152600401610b509061180a565b60405180910390fd5b60008181548110610b93577f4e487b7100000000000000000000000000000000000000000000000000000000600052603260045260246000fd5b906000526020600020906006020160000160009054906101000a900473ffffffffffffffffffffffffffffffffffffffff1673ffffffffffffffffffffffffffffffffffffffff163373ffffffffffffffffffffffffffffffffffffffff1614610c32576040517f08c379a0000000000000000000000000000000000000000000000000000000008152600401610c299061176a565b60405180910390fd5b6000808281548110610c6d577f4e487b7100000000000000000000000000000000000000000000000000000000600052603260045260246000fd5b90600052602060002090600602016004015490506000808381548110610cbc577f4e487b7100000000000000000000000000000000000000000000000000000000600052603260045260246000fd5b906000526020600020906006020160010160009054906101000a900473ffffffffffffffffffffffffffffffffffffffff1673ffffffffffffffffffffffffffffffffffffffff1682604051610d1190611711565b60006040518083038185875af1925050503d8060008114610d4e576040519150601f19603f3d011682016040523d82523d6000602084013e610d53565b606091505b50509050600160008481548110610d93577f4e487b7100000000000000000000000000000000000000000000000000000000600052603260045260246000fd5b906000526020600020906006020160050160016101000a81548160ff021916908315150217905550610ddc604051806060016040528060358152602001611c30603591396112c4565b505050565b60008181548110610e1b577f4e487b7100000000000000000000000000000000000000000000000000000000600052603260045260246000fd5b906000526020600020906006020160050160029054906101000a900460ff1615610e7a576040517f08c379a0000000000000000000000000000000000000000000000000000000008152600401610e719061184a565b60405180910390fd5b60008181548110610eb4577f4e487b7100000000000000000000000000000000000000000000000000000000600052603260045260246000fd5b906000526020600020906006020160050160019054906101000a900460ff1615610f13576040517f08c379a0000000000000000000000000000000000000000000000000000000008152600401610f0a906117ca565b60405180910390fd5b60008181548110610f4d577f4e487b7100000000000000000000000000000000000000000000000000000000600052603260045260246000fd5b906000526020600020906006020160000160009054906101000a900473ffffffffffffffffffffffffffffffffffffffff1673ffffffffffffffffffffffffffffffffffffffff163373ffffffffffffffffffffffffffffffffffffffff1614610fec576040517f08c379a0000000000000000000000000000000000000000000000000000000008152600401610fe39061182a565b60405180910390fd5b6000808281548110611027577f4e487b7100000000000000000000000000000000000000000000000000000000600052603260045260246000fd5b90600052602060002090600602016004015490506000808381548110611076577f4e487b7100000000000000000000000000000000000000000000000000000000600052603260045260246000fd5b906000526020600020906006020160020160009054906101000a900473ffffffffffffffffffffffffffffffffffffffff1673ffffffffffffffffffffffffffffffffffffffff16826040516110cb90611711565b60006040518083038185875af1925050503d8060008114611108576040519150601f19603f3d011682016040523d82523d6000602084013e61110d565b606091505b5050905060016000848154811061114d577f4e487b7100000000000000000000000000000000000000000000000000000000600052603260045260246000fd5b906000526020600020906006020160050160026101000a81548160ff021916908315150217905550600083815481106111af577f4e487b7100000000000000000000000000000000000000000000000000000000600052603260045260246000fd5b9060005260206000209060060201600080820160006101000a81549073ffffffffffffffffffffffffffffffffffffffff02191690556001820160006101000a81549073ffffffffffffffffffffffffffffffffffffffff02191690556002820160006101000a81549073ffffffffffffffffffffffffffffffffffffffff0219169055600382016000905560048201600090556005820160006101000a81549060ff02191690556005820160016101000a81549060ff02191690556005820160026101000a81549060ff021916905550506112bf6040518060400160405280601081526020017f657363726f77206469736d6973736564000000000000000000000000000000008152506112c4565b505050565b61135a816040516024016112d89190611748565b6040516020818303038152906040527f41304fac000000000000000000000000000000000000000000000000000000007bffffffffffffffffffffffffffffffffffffffffffffffffffffffff19166020820180517bffffffffffffffffffffffffffffffffffffffffffffffffffffffff838183161783525050505061135d565b50565b60008151905060006a636f6e736f6c652e6c6f679050602083016000808483855afa5050505050565b60008135905061139581611bea565b92915050565b6000813590506113aa81611c01565b92915050565b6000813590506113bf81611c18565b92915050565b600080604083850312156113d857600080fd5b60006113e685828601611386565b92505060206113f78582860161139b565b9150509250929050565b60006020828403121561141357600080fd5b6000611421848285016113b0565b91505092915050565b60006114368383611651565b6101008301905092915050565b61144c8161192f565b82525050565b61145b8161191d565b82525050565b600061146c826118cd565b61147681856118f0565b9350611481836118bd565b8060005b838110156114b2578151611499888261142a565b97506114a4836118e3565b925050600181019050611485565b5085935050505092915050565b6114c881611941565b82525050565b6114d781611941565b82525050565b60006114e8826118d8565b6114f2818561190c565b9350611502818560208601611977565b61150b816119aa565b840191505092915050565b600061152360238361190c565b915061152e826119bb565b604082019050919050565b600061154660248361190c565b915061155182611a0a565b604082019050919050565b6000611569601f8361190c565b915061157482611a59565b602082019050919050565b600061158c60328361190c565b915061159782611a82565b604082019050919050565b60006115af60228361190c565b91506115ba82611ad1565b604082019050919050565b60006115d260308361190c565b91506115dd82611b20565b604082019050919050565b60006115f5600083611901565b915061160082611b6f565b600082019050919050565b600061161860208361190c565b915061162382611b72565b602082019050919050565b600061163b60268361190c565b915061164682611b9b565b604082019050919050565b610100820160008201516116686000850182611452565b50602082015161167b6020850182611443565b50604082015161168e6040850182611443565b5060608201516116a160608501826116f3565b5060808201516116b460808501826116f3565b5060a08201516116c760a08501826114bf565b5060c08201516116da60c08501826114bf565b5060e08201516116ed60e08501826114bf565b50505050565b6116fc8161196d565b82525050565b61170b8161196d565b82525050565b600061171c826115e8565b9150819050919050565b600060208201905081810360008301526117408184611461565b905092915050565b6000602082019050818103600083015261176281846114dd565b905092915050565b6000602082019050818103600083015261178381611516565b9050919050565b600060208201905081810360008301526117a381611539565b9050919050565b600060208201905081810360008301526117c38161155c565b9050919050565b600060208201905081810360008301526117e38161157f565b9050919050565b60006020820190508181036000830152611803816115a2565b9050919050565b60006020820190508181036000830152611823816115c5565b9050919050565b600060208201905081810360008301526118438161160b565b9050919050565b600060208201905081810360008301526118638161162e565b9050919050565b600060a08201905061187f6000830188611702565b61188c6020830187611702565b61189960408301866114ce565b6118a660608301856114ce565b6118b360808301846114ce565b9695505050505050565b6000819050602082019050919050565b600081519050919050565b600081519050919050565b6000602082019050919050565b600082825260208201905092915050565b600081905092915050565b600082825260208201905092915050565b60006119288261194d565b9050919050565b600061193a8261194d565b9050919050565b60008115159050919050565b600073ffffffffffffffffffffffffffffffffffffffff82169050919050565b6000819050919050565b60005b8381101561199557808201518184015260208101905061197a565b838111156119a4576000848401525b50505050565b6000601f19601f8301169050919050565b7f796f7520617265206e6f742074686520636f6e7472616374732773206172626960008201527f7465720000000000000000000000000000000000000000000000000000000000602082015250565b7f796f7520617265206e6f742074686520657363726f7727732062656e6566696360008201527f6961727900000000000000000000000000000000000000000000000000000000602082015250565b7f696e73657274207468652076616c7565206f6620796f757220657363726f7700600082015250565b7f7468697320657363726f7720686173206265656e20617070726f76656420796f60008201527f752063616e2774206469736d6973732069740000000000000000000000000000602082015250565b7f636f6e747261637420686173206265656e20616c726561647920617070726f7660008201527f6564000000000000000000000000000000000000000000000000000000000000602082015250565b7f7468652061726269746572206973206e6f7420617070726f7665642066726f6d60008201527f2062656e65666963696172792079657400000000000000000000000000000000602082015250565b50565b7f796f7520617265206e6f742074686520657363726f7727732061726269746572600082015250565b7f7468697320657363726f7720686173206265656e20616c72656164792064697360008201527f6d69737365640000000000000000000000000000000000000000000000000000602082015250565b611bf38161191d565b8114611bfe57600080fd5b50565b611c0a8161192f565b8114611c1557600080fd5b50565b611c218161196d565b8114611c2c57600080fd5b5056fe657363726f77206265747765656e207061727469657320686173206265656e20617070726f7665642066726f6d20617262697465726172626974657220686173206265656e20617070726f7665642066726f6d2062656e656669636961727920746f6fa2646970667358221220bf2e94fca3a3cc4a1643e9af95115c8a065eb856cb38b3d900b50482da6c715264736f6c63430008040033",
    "linkReferences": {},
    "deployedLinkReferences": {}
}