{
    "_format": "hh-sol-artifact-1",
    "contractName": "Escrow",
    "sourceName": "contracts/Escrow.sol",
    "abi": [
        {
            "inputs": [],
            "stateMutability": "nonpayable",
            "type": "constructor"
        },
        {
            "anonymous": false,
            "inputs": [
                {
                    "indexed": true,
                    "internalType": "address",
                    "name": "arb",
                    "type": "address"
                },
                {
                    "indexed": true,
                    "internalType": "address",
                    "name": "ben",
                    "type": "address"
                },
                {
                    "indexed": true,
                    "internalType": "address",
                    "name": "dep",
                    "type": "address"
                },
                {
                    "indexed": false,
                    "internalType": "uint256",
                    "name": "amount",
                    "type": "uint256"
                }
            ],
            "name": "NewContract",
            "type": "event"
        },
        {
            "inputs": [
                {
                    "internalType": "uint256",
                    "name": "i",
                    "type": "uint256"
                }
            ],
            "name": "approve",
            "outputs": [],
            "stateMutability": "nonpayable",
            "type": "function"
        },
        {
            "inputs": [
                {
                    "internalType": "uint256",
                    "name": "i",
                    "type": "uint256"
                }
            ],
            "name": "approveArbiter",
            "outputs": [],
            "stateMutability": "nonpayable",
            "type": "function"
        },
        {
            "inputs": [],
            "name": "arbiter",
            "outputs": [
                {
                    "internalType": "address",
                    "name": "",
                    "type": "address"
                }
            ],
            "stateMutability": "view",
            "type": "function"
        },
        {
            "inputs": [],
            "name": "beneficiary",
            "outputs": [
                {
                    "internalType": "address payable",
                    "name": "",
                    "type": "address"
                }
            ],
            "stateMutability": "view",
            "type": "function"
        },
        {
            "inputs": [],
            "name": "depositor",
            "outputs": [
                {
                    "internalType": "address payable",
                    "name": "",
                    "type": "address"
                }
            ],
            "stateMutability": "view",
            "type": "function"
        },
        {
            "inputs": [
                {
                    "internalType": "uint256",
                    "name": "i",
                    "type": "uint256"
                }
            ],
            "name": "dismissEscrow",
            "outputs": [],
            "stateMutability": "nonpayable",
            "type": "function"
        },
        {
            "inputs": [],
            "name": "getAllContracts",
            "outputs": [
                {
                    "components": [
                        {
                            "internalType": "address",
                            "name": "Arbiter",
                            "type": "address"
                        },
                        {
                            "internalType": "address payable",
                            "name": "Beneficiary",
                            "type": "address"
                        },
                        {
                            "internalType": "address payable",
                            "name": "Depositor",
                            "type": "address"
                        },
                        {
                            "internalType": "uint256",
                            "name": "Amount",
                            "type": "uint256"
                        },
                        {
                            "internalType": "bool",
                            "name": "ArbiterApproved",
                            "type": "bool"
                        },
                        {
                            "internalType": "bool",
                            "name": "IsApproved",
                            "type": "bool"
                        },
                        {
                            "internalType": "bool",
                            "name": "Dismissed",
                            "type": "bool"
                        }
                    ],
                    "internalType": "struct Escrow.Contract[]",
                    "name": "",
                    "type": "tuple[]"
                }
            ],
            "stateMutability": "view",
            "type": "function"
        },
        {
            "inputs": [],
            "name": "owner",
            "outputs": [
                {
                    "internalType": "address payable",
                    "name": "",
                    "type": "address"
                }
            ],
            "stateMutability": "view",
            "type": "function"
        },
        {
            "inputs": [
                {
                    "internalType": "address",
                    "name": "_arbiter",
                    "type": "address"
                },
                {
                    "internalType": "address payable",
                    "name": "_beneficiary",
                    "type": "address"
                }
            ],
            "name": "writeNewContract",
            "outputs": [],
            "stateMutability": "payable",
            "type": "function"
        }
    ],
    "bytecode": "0x608060405234801561001057600080fd5b5033600360006101000a81548173ffffffffffffffffffffffffffffffffffffffff021916908373ffffffffffffffffffffffffffffffffffffffff160217905550611741806100616000396000f3fe6080604052600436106100865760003560e01c80639b985e44116100595780639b985e4414610135578063b759f95414610151578063c7c4ff461461017a578063efd37e5b146101a5578063fe25e00a146101ce57610086565b806318d3ce961461008b57806338af3eed146100b657806358d74620146100e15780638da5cb5b1461010a575b600080fd5b34801561009757600080fd5b506100a06101f9565b6040516100ad91906114e2565b60405180910390f35b3480156100c257600080fd5b506100cb6103b5565b6040516100d891906114c7565b60405180910390f35b3480156100ed57600080fd5b50610108600480360381019061010391906112a5565b6103db565b005b34801561011657600080fd5b5061011f610506565b60405161012c91906114c7565b60405180910390f35b61014f600480360381019061014a9190611269565b61052c565b005b34801561015d57600080fd5b50610178600480360381019061017391906112a5565b61096b565b005b34801561018657600080fd5b5061018f610c21565b60405161019c91906114c7565b60405180910390f35b3480156101b157600080fd5b506101cc60048036038101906101c791906112a5565b610c47565b005b3480156101da57600080fd5b506101e3611144565b6040516101f091906114ac565b60405180910390f35b60606004805480602002602001604051908101604052809291908181526020016000905b828210156103ac57838290600052602060002090600502016040518060e00160405290816000820160009054906101000a900473ffffffffffffffffffffffffffffffffffffffff1673ffffffffffffffffffffffffffffffffffffffff1673ffffffffffffffffffffffffffffffffffffffff1681526020016001820160009054906101000a900473ffffffffffffffffffffffffffffffffffffffff1673ffffffffffffffffffffffffffffffffffffffff1673ffffffffffffffffffffffffffffffffffffffff1681526020016002820160009054906101000a900473ffffffffffffffffffffffffffffffffffffffff1673ffffffffffffffffffffffffffffffffffffffff1673ffffffffffffffffffffffffffffffffffffffff168152602001600382015481526020016004820160009054906101000a900460ff161515151581526020016004820160019054906101000a900460ff161515151581526020016004820160029054906101000a900460ff1615151515815250508152602001906001019061021d565b50505050905090565b600160009054906101000a900473ffffffffffffffffffffffffffffffffffffffff1681565b60048181548110610415577f4e487b7100000000000000000000000000000000000000000000000000000000600052603260045260246000fd5b906000526020600020906005020160010160009054906101000a900473ffffffffffffffffffffffffffffffffffffffff1673ffffffffffffffffffffffffffffffffffffffff163373ffffffffffffffffffffffffffffffffffffffff161461047e57600080fd5b6001600482815481106104ba577f4e487b7100000000000000000000000000000000000000000000000000000000600052603260045260246000fd5b906000526020600020906005020160040160006101000a81548160ff0219169083151502179055506105036040518060600160405280602e81526020016116de602e9139611168565b50565b600360009054906101000a900473ffffffffffffffffffffffffffffffffffffffff1681565b6000341161053957600080fd5b816000806101000a81548173ffffffffffffffffffffffffffffffffffffffff021916908373ffffffffffffffffffffffffffffffffffffffff16021790555080600160006101000a81548173ffffffffffffffffffffffffffffffffffffffff021916908373ffffffffffffffffffffffffffffffffffffffff16021790555033600260006101000a81548173ffffffffffffffffffffffffffffffffffffffff021916908373ffffffffffffffffffffffffffffffffffffffff16021790555060046040518060e0016040528060008054906101000a900473ffffffffffffffffffffffffffffffffffffffff1673ffffffffffffffffffffffffffffffffffffffff168152602001600160009054906101000a900473ffffffffffffffffffffffffffffffffffffffff1673ffffffffffffffffffffffffffffffffffffffff168152602001600260009054906101000a900473ffffffffffffffffffffffffffffffffffffffff1673ffffffffffffffffffffffffffffffffffffffff16815260200134815260200160001515815260200160001515815260200160001515815250908060018154018082558091505060019003906000526020600020906005020160009091909190915060008201518160000160006101000a81548173ffffffffffffffffffffffffffffffffffffffff021916908373ffffffffffffffffffffffffffffffffffffffff16021790555060208201518160010160006101000a81548173ffffffffffffffffffffffffffffffffffffffff021916908373ffffffffffffffffffffffffffffffffffffffff16021790555060408201518160020160006101000a81548173ffffffffffffffffffffffffffffffffffffffff021916908373ffffffffffffffffffffffffffffffffffffffff1602179055506060820151816003015560808201518160040160006101000a81548160ff02191690831515021790555060a08201518160040160016101000a81548160ff02191690831515021790555060c08201518160040160026101000a81548160ff0219169083151502179055505050600260009054906101000a900473ffffffffffffffffffffffffffffffffffffffff1673ffffffffffffffffffffffffffffffffffffffff16600160009054906101000a900473ffffffffffffffffffffffffffffffffffffffff1673ffffffffffffffffffffffffffffffffffffffff1660008054906101000a900473ffffffffffffffffffffffffffffffffffffffff1673ffffffffffffffffffffffffffffffffffffffff167fc5f8867e3e2bff12b98dd0108413ee93d56c5c12f9bac147396c39e9e8153749476040516109219190611526565b60405180910390a46109676040518060400160405280601f81526020017f61206e657720636f6e747261637420686173206265656e207772697474656e00815250611168565b5050565b600481815481106109a5577f4e487b7100000000000000000000000000000000000000000000000000000000600052603260045260246000fd5b906000526020600020906005020160040160009054906101000a900460ff166109cd57600080fd5b60048181548110610a07577f4e487b7100000000000000000000000000000000000000000000000000000000600052603260045260246000fd5b906000526020600020906005020160000160009054906101000a900473ffffffffffffffffffffffffffffffffffffffff1673ffffffffffffffffffffffffffffffffffffffff163373ffffffffffffffffffffffffffffffffffffffff1614610a7057600080fd5b600060048281548110610aac577f4e487b7100000000000000000000000000000000000000000000000000000000600052603260045260246000fd5b9060005260206000209060050201600301549050600060048381548110610afc577f4e487b7100000000000000000000000000000000000000000000000000000000600052603260045260246000fd5b906000526020600020906005020160010160009054906101000a900473ffffffffffffffffffffffffffffffffffffffff1673ffffffffffffffffffffffffffffffffffffffff1682604051610b5190611497565b60006040518083038185875af1925050503d8060008114610b8e576040519150601f19603f3d011682016040523d82523d6000602084013e610b93565b606091505b50509050600160048481548110610bd3577f4e487b7100000000000000000000000000000000000000000000000000000000600052603260045260246000fd5b906000526020600020906005020160040160016101000a81548160ff021916908315150217905550610c1c6040518060600160405280603581526020016116a960359139611168565b505050565b600260009054906101000a900473ffffffffffffffffffffffffffffffffffffffff1681565b60048181548110610c81577f4e487b7100000000000000000000000000000000000000000000000000000000600052603260045260246000fd5b906000526020600020906005020160040160029054906101000a900460ff1615610caa57600080fd5b60048181548110610ce4577f4e487b7100000000000000000000000000000000000000000000000000000000600052603260045260246000fd5b906000526020600020906005020160020160009054906101000a900473ffffffffffffffffffffffffffffffffffffffff1673ffffffffffffffffffffffffffffffffffffffff163373ffffffffffffffffffffffffffffffffffffffff161480610de5575060048181548110610d84577f4e487b7100000000000000000000000000000000000000000000000000000000600052603260045260246000fd5b906000526020600020906005020160010160009054906101000a900473ffffffffffffffffffffffffffffffffffffffff1673ffffffffffffffffffffffffffffffffffffffff163373ffffffffffffffffffffffffffffffffffffffff16145b80610e86575060048181548110610e25577f4e487b7100000000000000000000000000000000000000000000000000000000600052603260045260246000fd5b906000526020600020906005020160000160009054906101000a900473ffffffffffffffffffffffffffffffffffffffff1673ffffffffffffffffffffffffffffffffffffffff163373ffffffffffffffffffffffffffffffffffffffff16145b610e8f57600080fd5b600060048281548110610ecb577f4e487b7100000000000000000000000000000000000000000000000000000000600052603260045260246000fd5b9060005260206000209060050201600301549050600060048381548110610f1b577f4e487b7100000000000000000000000000000000000000000000000000000000600052603260045260246000fd5b906000526020600020906005020160020160009054906101000a900473ffffffffffffffffffffffffffffffffffffffff1673ffffffffffffffffffffffffffffffffffffffff1682604051610f7090611497565b60006040518083038185875af1925050503d8060008114610fad576040519150601f19603f3d011682016040523d82523d6000602084013e610fb2565b606091505b50509050600160048481548110610ff2577f4e487b7100000000000000000000000000000000000000000000000000000000600052603260045260246000fd5b906000526020600020906005020160040160026101000a81548160ff02191690831515021790555060048381548110611054577f4e487b7100000000000000000000000000000000000000000000000000000000600052603260045260246000fd5b9060005260206000209060050201600080820160006101000a81549073ffffffffffffffffffffffffffffffffffffffff02191690556001820160006101000a81549073ffffffffffffffffffffffffffffffffffffffff02191690556002820160006101000a81549073ffffffffffffffffffffffffffffffffffffffff021916905560038201600090556004820160006101000a81549060ff02191690556004820160016101000a81549060ff02191690556004820160026101000a81549060ff0219169055505061113f60405180606001604052806021815260200161168860219139611168565b505050565b60008054906101000a900473ffffffffffffffffffffffffffffffffffffffff1681565b6111fe8160405160240161117c9190611504565b6040516020818303038152906040527f41304fac000000000000000000000000000000000000000000000000000000007bffffffffffffffffffffffffffffffffffffffffffffffffffffffff19166020820180517bffffffffffffffffffffffffffffffffffffffffffffffffffffffff8381831617835250505050611201565b50565b60008151905060006a636f6e736f6c652e6c6f679050602083016000808483855afa5050505050565b60008135905061123981611642565b92915050565b60008135905061124e81611659565b92915050565b60008135905061126381611670565b92915050565b6000806040838503121561127c57600080fd5b600061128a8582860161122a565b925050602061129b8582860161123f565b9150509250929050565b6000602082840312156112b757600080fd5b60006112c584828501611254565b91505092915050565b60006112da83836113eb565b60e08301905092915050565b6112ef816115b3565b82525050565b6112fe816115b3565b82525050565b61130d816115a1565b82525050565b61131c816115a1565b82525050565b600061132d82611551565b6113378185611574565b935061134283611541565b8060005b8381101561137357815161135a88826112ce565b975061136583611567565b925050600181019050611346565b5085935050505092915050565b611389816115c5565b82525050565b600061139a8261155c565b6113a48185611590565b93506113b48185602086016115fb565b6113bd8161162e565b840191505092915050565b60006113d5600083611585565b91506113e08261163f565b600082019050919050565b60e0820160008201516114016000850182611304565b50602082015161141460208501826112e6565b50604082015161142760408501826112e6565b50606082015161143a6060850182611479565b50608082015161144d6080850182611380565b5060a082015161146060a0850182611380565b5060c082015161147360c0850182611380565b50505050565b611482816115f1565b82525050565b611491816115f1565b82525050565b60006114a2826113c8565b9150819050919050565b60006020820190506114c16000830184611313565b92915050565b60006020820190506114dc60008301846112f5565b92915050565b600060208201905081810360008301526114fc8184611322565b905092915050565b6000602082019050818103600083015261151e818461138f565b905092915050565b600060208201905061153b6000830184611488565b92915050565b6000819050602082019050919050565b600081519050919050565b600081519050919050565b6000602082019050919050565b600082825260208201905092915050565b600081905092915050565b600082825260208201905092915050565b60006115ac826115d1565b9050919050565b60006115be826115d1565b9050919050565b60008115159050919050565b600073ffffffffffffffffffffffffffffffffffffffff82169050919050565b6000819050919050565b60005b838110156116195780820151818401526020810190506115fe565b83811115611628576000848401525b50505050565b6000601f19601f8301169050919050565b50565b61164b816115a1565b811461165657600080fd5b50565b611662816115b3565b811461166d57600080fd5b50565b611679816115f1565b811461168457600080fd5b5056fe636f6e7472616374206469736d69737365642066726f6d206465706f7369746f72657363726f77206265747765656e207061727469657320686173206265656e20617070726f7665642066726f6d20617262697465726172626974657220686173206265656e20617070726f7665642066726f6d2062656e656669636961727920746f6fa2646970667358221220ae0238a86d2092c60851882e9aea3821d0692e9d89a95c67475faf806ceaa89364736f6c63430008040033",
    "linkReferences": {},
    "deployedLinkReferences": {}
}